{
  "_format": "hh-sol-artifact-1",
  "contractName": "Create",
  "sourceName": "contracts/VotingContract.sol",
  "abi": [
    {
      "inputs": [],
      "stateMutability": "nonpayable",
      "type": "constructor"
    },
    {
      "anonymous": false,
      "inputs": [
        {
          "indexed": true,
          "internalType": "uint256",
          "name": "candidateId",
          "type": "uint256"
        },
        {
          "indexed": false,
          "internalType": "string",
          "name": "age",
          "type": "string"
        },
        {
          "indexed": false,
          "internalType": "string",
          "name": "name",
          "type": "string"
        },
        {
          "indexed": false,
          "internalType": "string",
          "name": "image",
          "type": "string"
        },
        {
          "indexed": false,
          "internalType": "uint256",
          "name": "voteCount",
          "type": "uint256"
        },
        {
          "indexed": false,
          "internalType": "address",
          "name": "_address",
          "type": "address"
        },
        {
          "indexed": false,
          "internalType": "string",
          "name": "ipfs",
          "type": "string"
        }
      ],
      "name": "CandidateCreate",
      "type": "event"
    },
    {
      "anonymous": false,
      "inputs": [
        {
          "indexed": true,
          "internalType": "uint256",
          "name": "voterId",
          "type": "uint256"
        },
        {
          "indexed": false,
          "internalType": "string",
          "name": "name",
          "type": "string"
        },
        {
          "indexed": false,
          "internalType": "string",
          "name": "image",
          "type": "string"
        },
        {
          "indexed": false,
          "internalType": "address",
          "name": "voterAddress",
          "type": "address"
        },
        {
          "indexed": false,
          "internalType": "bool",
          "name": "allowed",
          "type": "bool"
        },
        {
          "indexed": false,
          "internalType": "bool",
          "name": "voted",
          "type": "bool"
        },
        {
          "indexed": false,
          "internalType": "uint256",
          "name": "vote",
          "type": "uint256"
        },
        {
          "indexed": false,
          "internalType": "string",
          "name": "ipfs",
          "type": "string"
        }
      ],
      "name": "VoterCreated",
      "type": "event"
    },
    {
      "inputs": [
        {
          "internalType": "uint256",
          "name": "",
          "type": "uint256"
        }
      ],
      "name": "candidateAddress",
      "outputs": [
        {
          "internalType": "address",
          "name": "",
          "type": "address"
        }
      ],
      "stateMutability": "view",
      "type": "function"
    },
    {
      "inputs": [
        {
          "internalType": "address",
          "name": "",
          "type": "address"
        }
      ],
      "name": "candidates",
      "outputs": [
        {
          "internalType": "uint256",
          "name": "candidateId",
          "type": "uint256"
        },
        {
          "internalType": "string",
          "name": "age",
          "type": "string"
        },
        {
          "internalType": "string",
          "name": "name",
          "type": "string"
        },
        {
          "internalType": "string",
          "name": "image",
          "type": "string"
        },
        {
          "internalType": "uint256",
          "name": "voteCount",
          "type": "uint256"
        },
        {
          "internalType": "address",
          "name": "_address",
          "type": "address"
        },
        {
          "internalType": "string",
          "name": "ipfs",
          "type": "string"
        }
      ],
      "stateMutability": "view",
      "type": "function"
    },
    {
      "inputs": [],
      "name": "getCandidate",
      "outputs": [
        {
          "internalType": "address[]",
          "name": "",
          "type": "address[]"
        }
      ],
      "stateMutability": "view",
      "type": "function"
    },
    {
      "inputs": [
        {
          "internalType": "address",
          "name": "_address",
          "type": "address"
        }
      ],
      "name": "getCandidateData",
      "outputs": [
        {
          "internalType": "string",
          "name": "",
          "type": "string"
        },
        {
          "internalType": "string",
          "name": "",
          "type": "string"
        },
        {
          "internalType": "uint256",
          "name": "",
          "type": "uint256"
        },
        {
          "internalType": "string",
          "name": "",
          "type": "string"
        },
        {
          "internalType": "uint256",
          "name": "",
          "type": "uint256"
        },
        {
          "internalType": "string",
          "name": "",
          "type": "string"
        },
        {
          "internalType": "address",
          "name": "",
          "type": "address"
        }
      ],
      "stateMutability": "view",
      "type": "function"
    },
    {
      "inputs": [],
      "name": "getCandidateLength",
      "outputs": [
        {
          "internalType": "uint256",
          "name": "",
          "type": "uint256"
        }
      ],
      "stateMutability": "view",
      "type": "function"
    },
    {
      "inputs": [],
      "name": "getVotedVoterList",
      "outputs": [
        {
          "internalType": "address[]",
          "name": "",
          "type": "address[]"
        }
      ],
      "stateMutability": "view",
      "type": "function"
    },
    {
      "inputs": [
        {
          "internalType": "address",
          "name": "_address",
          "type": "address"
        }
      ],
      "name": "getVoterData",
      "outputs": [
        {
          "internalType": "uint256",
          "name": "",
          "type": "uint256"
        },
        {
          "internalType": "string",
          "name": "",
          "type": "string"
        },
        {
          "internalType": "string",
          "name": "",
          "type": "string"
        },
        {
          "internalType": "address",
          "name": "",
          "type": "address"
        },
        {
          "internalType": "bool",
          "name": "",
          "type": "bool"
        },
        {
          "internalType": "bool",
          "name": "",
          "type": "bool"
        },
        {
          "internalType": "uint256",
          "name": "",
          "type": "uint256"
        },
        {
          "internalType": "string",
          "name": "",
          "type": "string"
        }
      ],
      "stateMutability": "view",
      "type": "function"
    },
    {
      "inputs": [],
      "name": "getVoterLength",
      "outputs": [
        {
          "internalType": "uint256",
          "name": "",
          "type": "uint256"
        }
      ],
      "stateMutability": "view",
      "type": "function"
    },
    {
      "inputs": [],
      "name": "getVoterList",
      "outputs": [
        {
          "internalType": "address[]",
          "name": "",
          "type": "address[]"
        }
      ],
      "stateMutability": "view",
      "type": "function"
    },
    {
      "inputs": [
        {
          "internalType": "address",
          "name": "_address",
          "type": "address"
        },
        {
          "internalType": "string",
          "name": "_age",
          "type": "string"
        },
        {
          "internalType": "string",
          "name": "_name",
          "type": "string"
        },
        {
          "internalType": "string",
          "name": "_image",
          "type": "string"
        },
        {
          "internalType": "string",
          "name": "_ipfs",
          "type": "string"
        }
      ],
      "name": "setCandidate",
      "outputs": [],
      "stateMutability": "nonpayable",
      "type": "function"
    },
    {
      "inputs": [
        {
          "internalType": "address",
          "name": "_candidateAddress",
          "type": "address"
        },
        {
          "internalType": "uint256",
          "name": "_candidateVoteId",
          "type": "uint256"
        }
      ],
      "name": "vote",
      "outputs": [],
      "stateMutability": "nonpayable",
      "type": "function"
    },
    {
      "inputs": [
        {
          "internalType": "uint256",
          "name": "",
          "type": "uint256"
        }
      ],
      "name": "votedVoters",
      "outputs": [
        {
          "internalType": "address",
          "name": "",
          "type": "address"
        }
      ],
      "stateMutability": "view",
      "type": "function"
    },
    {
      "inputs": [
        {
          "internalType": "address",
          "name": "_address",
          "type": "address"
        },
        {
          "internalType": "string",
          "name": "_name",
          "type": "string"
        },
        {
          "internalType": "string",
          "name": "_image",
          "type": "string"
        },
        {
          "internalType": "string",
          "name": "_ipfs",
          "type": "string"
        }
      ],
      "name": "voterRight",
      "outputs": [],
      "stateMutability": "nonpayable",
      "type": "function"
    },
    {
      "inputs": [
        {
          "internalType": "address",
          "name": "",
          "type": "address"
        }
      ],
      "name": "voters",
      "outputs": [
        {
          "internalType": "uint256",
          "name": "voterId",
          "type": "uint256"
        },
        {
          "internalType": "string",
          "name": "name",
          "type": "string"
        },
        {
          "internalType": "string",
          "name": "image",
          "type": "string"
        },
        {
          "internalType": "address",
          "name": "voterAddress",
          "type": "address"
        },
        {
          "internalType": "bool",
          "name": "allowed",
          "type": "bool"
        },
        {
          "internalType": "bool",
          "name": "voted",
          "type": "bool"
        },
        {
          "internalType": "uint256",
          "name": "vote",
          "type": "uint256"
        },
        {
          "internalType": "string",
          "name": "ipfs",
          "type": "string"
        }
      ],
      "stateMutability": "view",
      "type": "function"
    },
    {
      "inputs": [
        {
          "internalType": "uint256",
          "name": "",
          "type": "uint256"
        }
      ],
      "name": "votersAddress",
      "outputs": [
        {
          "internalType": "address",
          "name": "",
          "type": "address"
        }
      ],
      "stateMutability": "view",
      "type": "function"
    },
    {
      "inputs": [],
      "name": "votingOrganizer",
      "outputs": [
        {
          "internalType": "address",
          "name": "",
          "type": "address"
        }
      ],
      "stateMutability": "view",
      "type": "function"
    }
  ],
  "bytecode": "0x608060405234801561001057600080fd5b5033600260006101000a81548173ffffffffffffffffffffffffffffffffffffffff021916908373ffffffffffffffffffffffffffffffffffffffff160217905550612675806100616000396000f3fe608060405234801561001057600080fd5b50600436106101005760003560e01c80637831ffb311610097578063a3ec138d11610066578063a3ec138d146102e8578063b28d92ae1461031f578063c91ec7121461033d578063f7522a831461035957610100565b80637831ffb31461022d5780638ab66a901461025d5780638e945685146102935780638fb4cd80146102b157610100565b806343242daa116100d357806343242daa146101a55780635cc48aa7146101d55780635f74bbde146101f357806370218b851461020f57610100565b80630361419e1461010557806305ad45a4146101215780632a466ac71461013f5780633a88251a14610175575b600080fd5b61011f600480360381019061011a91906119ce565b610377565b005b610129610650565b6040516101369190611aa2565b60405180910390f35b61015960048036038101906101549190611abd565b61065d565b60405161016c9796959493929190611b78565b60405180910390f35b61018f600480360381019061018a9190611c2f565b610aa4565b60405161019c9190611c5c565b60405180910390f35b6101bf60048036038101906101ba9190611c2f565b610ae3565b6040516101cc9190611c5c565b60405180910390f35b6101dd610b22565b6040516101ea9190611c5c565b60405180910390f35b61020d60048036038101906102089190611c77565b610b48565b005b610217610d19565b6040516102249190611d75565b60405180910390f35b61024760048036038101906102429190611c2f565b610da7565b6040516102549190611c5c565b60405180910390f35b61027760048036038101906102729190611abd565b610de6565b60405161028a9796959493929190611d97565b60405180910390f35b61029b611068565b6040516102a89190611d75565b60405180910390f35b6102cb60048036038101906102c69190611abd565b6110f6565b6040516102df989796959493929190611e3d565b60405180910390f35b61030260048036038101906102fd9190611abd565b611365565b604051610316989796959493929190611e3d565b60405180910390f35b61032761157f565b6040516103349190611d75565b60405180910390f35b61035760048036038101906103529190611ed0565b61160d565b005b6103616117e5565b60405161036e9190611aa2565b60405180910390f35b3373ffffffffffffffffffffffffffffffffffffffff16600260009054906101000a900473ffffffffffffffffffffffffffffffffffffffff1673ffffffffffffffffffffffffffffffffffffffff1614610407576040517f08c379a00000000000000000000000000000000000000000000000000000000081526004016103fe90612007565b60405180910390fd5b61041160006117f2565b600061041d6000611808565b90506000600760008773ffffffffffffffffffffffffffffffffffffffff1673ffffffffffffffffffffffffffffffffffffffff16815260200190815260200160002090508060030160149054906101000a900460ff16156104b4576040517f08c379a00000000000000000000000000000000000000000000000000000000081526004016104ab90612073565b60405180910390fd5b60018160030160146101000a81548160ff021916908315150217905550848160010190816104e2919061229f565b50838160020190816104f4919061229f565b50858160030160006101000a81548173ffffffffffffffffffffffffffffffffffffffff021916908373ffffffffffffffffffffffffffffffffffffffff1602179055508181600001819055506103e8816004018190555060008160030160156101000a81548160ff0219169083151502179055508281600501908161057a919061229f565b506006869080600181540180825580915050600190039060005260206000200160009091909190916101000a81548173ffffffffffffffffffffffffffffffffffffffff021916908373ffffffffffffffffffffffffffffffffffffffff160217905550817fe11979f4244cfc0a2701344a03c0343638f175ab3c9f032cdbd24f2725e06eea8686898560030160149054906101000a900460ff168660030160159054906101000a900460ff1687600401548a6040516106409796959493929190612371565b60405180910390a2505050505050565b6000600680549050905090565b60608060006060600060606000600460008973ffffffffffffffffffffffffffffffffffffffff1673ffffffffffffffffffffffffffffffffffffffff168152602001908152602001600020600101600460008a73ffffffffffffffffffffffffffffffffffffffff1673ffffffffffffffffffffffffffffffffffffffff168152602001908152602001600020600201600460008b73ffffffffffffffffffffffffffffffffffffffff1673ffffffffffffffffffffffffffffffffffffffff16815260200190815260200160002060000154600460008c73ffffffffffffffffffffffffffffffffffffffff1673ffffffffffffffffffffffffffffffffffffffff168152602001908152602001600020600301600460008d73ffffffffffffffffffffffffffffffffffffffff1673ffffffffffffffffffffffffffffffffffffffff16815260200190815260200160002060040154600460008e73ffffffffffffffffffffffffffffffffffffffff1673ffffffffffffffffffffffffffffffffffffffff168152602001908152602001600020600601600460008f73ffffffffffffffffffffffffffffffffffffffff1673ffffffffffffffffffffffffffffffffffffffff16815260200190815260200160002060050160009054906101000a900473ffffffffffffffffffffffffffffffffffffffff16868054610867906120c2565b80601f0160208091040260200160405190810160405280929190818152602001828054610893906120c2565b80156108e05780601f106108b5576101008083540402835291602001916108e0565b820191906000526020600020905b8154815290600101906020018083116108c357829003601f168201915b505050505096508580546108f3906120c2565b80601f016020809104026020016040519081016040528092919081815260200182805461091f906120c2565b801561096c5780601f106109415761010080835404028352916020019161096c565b820191906000526020600020905b81548152906001019060200180831161094f57829003601f168201915b5050505050955083805461097f906120c2565b80601f01602080910402602001604051908101604052809291908181526020018280546109ab906120c2565b80156109f85780601f106109cd576101008083540402835291602001916109f8565b820191906000526020600020905b8154815290600101906020018083116109db57829003601f168201915b50505050509350818054610a0b906120c2565b80601f0160208091040260200160405190810160405280929190818152602001828054610a37906120c2565b8015610a845780601f10610a5957610100808354040283529160200191610a84565b820191906000526020600020905b815481529060010190602001808311610a6757829003601f168201915b505050505091509650965096509650965096509650919395979092949650565b60038181548110610ab457600080fd5b906000526020600020016000915054906101000a900473ffffffffffffffffffffffffffffffffffffffff1681565b60068181548110610af357600080fd5b906000526020600020016000915054906101000a900473ffffffffffffffffffffffffffffffffffffffff1681565b600260009054906101000a900473ffffffffffffffffffffffffffffffffffffffff1681565b6000600760003373ffffffffffffffffffffffffffffffffffffffff1673ffffffffffffffffffffffffffffffffffffffff16815260200190815260200160002090508060030160159054906101000a900460ff1615610bdd576040517f08c379a0000000000000000000000000000000000000000000000000000000008152600401610bd490612441565b60405180910390fd5b8060030160149054906101000a900460ff16610c2e576040517f08c379a0000000000000000000000000000000000000000000000000000000008152600401610c25906124ad565b60405180910390fd5b60018160030160156101000a81548160ff0219169083151502179055508181600401819055506005339080600181540180825580915050600190039060005260206000200160009091909190916101000a81548173ffffffffffffffffffffffffffffffffffffffff021916908373ffffffffffffffffffffffffffffffffffffffff1602179055508060040154600460008573ffffffffffffffffffffffffffffffffffffffff1673ffffffffffffffffffffffffffffffffffffffff1681526020019081526020016000206004016000828254610d0d91906124fc565b92505081905550505050565b60606003805480602002602001604051908101604052809291908181526020018280548015610d9d57602002820191906000526020600020905b8160009054906101000a900473ffffffffffffffffffffffffffffffffffffffff1673ffffffffffffffffffffffffffffffffffffffff1681526020019060010190808311610d53575b5050505050905090565b60058181548110610db757600080fd5b906000526020600020016000915054906101000a900473ffffffffffffffffffffffffffffffffffffffff1681565b6004602052806000526040600020600091509050806000015490806001018054610e0f906120c2565b80601f0160208091040260200160405190810160405280929190818152602001828054610e3b906120c2565b8015610e885780601f10610e5d57610100808354040283529160200191610e88565b820191906000526020600020905b815481529060010190602001808311610e6b57829003601f168201915b505050505090806002018054610e9d906120c2565b80601f0160208091040260200160405190810160405280929190818152602001828054610ec9906120c2565b8015610f165780601f10610eeb57610100808354040283529160200191610f16565b820191906000526020600020905b815481529060010190602001808311610ef957829003601f168201915b505050505090806003018054610f2b906120c2565b80601f0160208091040260200160405190810160405280929190818152602001828054610f57906120c2565b8015610fa45780601f10610f7957610100808354040283529160200191610fa4565b820191906000526020600020905b815481529060010190602001808311610f8757829003601f168201915b5050505050908060040154908060050160009054906101000a900473ffffffffffffffffffffffffffffffffffffffff1690806006018054610fe5906120c2565b80601f0160208091040260200160405190810160405280929190818152602001828054611011906120c2565b801561105e5780601f106110335761010080835404028352916020019161105e565b820191906000526020600020905b81548152906001019060200180831161104157829003601f168201915b5050505050905087565b606060058054806020026020016040519081016040528092919081815260200182805480156110ec57602002820191906000526020600020905b8160009054906101000a900473ffffffffffffffffffffffffffffffffffffffff1673ffffffffffffffffffffffffffffffffffffffff16815260200190600101908083116110a2575b5050505050905090565b600060608060008060008060606000600760008b73ffffffffffffffffffffffffffffffffffffffff1673ffffffffffffffffffffffffffffffffffffffff1681526020019081526020016000209050806000015481600101826002018360030160009054906101000a900473ffffffffffffffffffffffffffffffffffffffff168460030160149054906101000a900460ff168560030160159054906101000a900460ff168660040154876005018680546111b1906120c2565b80601f01602080910402602001604051908101604052809291908181526020018280546111dd906120c2565b801561122a5780601f106111ff5761010080835404028352916020019161122a565b820191906000526020600020905b81548152906001019060200180831161120d57829003601f168201915b5050505050965085805461123d906120c2565b80601f0160208091040260200160405190810160405280929190818152602001828054611269906120c2565b80156112b65780601f1061128b576101008083540402835291602001916112b6565b820191906000526020600020905b81548152906001019060200180831161129957829003601f168201915b505050505095508080546112c9906120c2565b80601f01602080910402602001604051908101604052809291908181526020018280546112f5906120c2565b80156113425780601f1061131757610100808354040283529160200191611342565b820191906000526020600020905b81548152906001019060200180831161132557829003601f168201915b505050505090509850985098509850985098509850985050919395975091939597565b600760205280600052604060002060009150905080600001549080600101805461138e906120c2565b80601f01602080910402602001604051908101604052809291908181526020018280546113ba906120c2565b80156114075780601f106113dc57610100808354040283529160200191611407565b820191906000526020600020905b8154815290600101906020018083116113ea57829003601f168201915b50505050509080600201805461141c906120c2565b80601f0160208091040260200160405190810160405280929190818152602001828054611448906120c2565b80156114955780601f1061146a57610100808354040283529160200191611495565b820191906000526020600020905b81548152906001019060200180831161147857829003601f168201915b5050505050908060030160009054906101000a900473ffffffffffffffffffffffffffffffffffffffff16908060030160149054906101000a900460ff16908060030160159054906101000a900460ff16908060040154908060050180546114fc906120c2565b80601f0160208091040260200160405190810160405280929190818152602001828054611528906120c2565b80156115755780601f1061154a57610100808354040283529160200191611575565b820191906000526020600020905b81548152906001019060200180831161155857829003601f168201915b5050505050905088565b6060600680548060200260200160405190810160405280929190818152602001828054801561160357602002820191906000526020600020905b8160009054906101000a900473ffffffffffffffffffffffffffffffffffffffff1673ffffffffffffffffffffffffffffffffffffffff16815260200190600101908083116115b9575b5050505050905090565b3373ffffffffffffffffffffffffffffffffffffffff16600260009054906101000a900473ffffffffffffffffffffffffffffffffffffffff1673ffffffffffffffffffffffffffffffffffffffff161461169d576040517f08c379a0000000000000000000000000000000000000000000000000000000008152600401611694906125a2565b60405180910390fd5b6116a760016117f2565b60006116b36001611808565b90506000600460008873ffffffffffffffffffffffffffffffffffffffff1673ffffffffffffffffffffffffffffffffffffffff168152602001908152602001600020905085816001019081611709919061229f565b508481600201908161171b919061229f565b5081816000018190555083816003019081611736919061229f565b5060008160040181905550868160050160006101000a81548173ffffffffffffffffffffffffffffffffffffffff021916908373ffffffffffffffffffffffffffffffffffffffff16021790555082816006019081611795919061229f565b50817fd297f12b256bb8485a6013fb5e302017018123e99a0ebb20756c09e1707b4b9087878785600401548c896040516117d4969594939291906125c2565b60405180910390a250505050505050565b6000600380549050905090565b6001816000016000828254019250508190555050565b600081600001549050919050565b6000604051905090565b600080fd5b600080fd5b600073ffffffffffffffffffffffffffffffffffffffff82169050919050565b60006118558261182a565b9050919050565b6118658161184a565b811461187057600080fd5b50565b6000813590506118828161185c565b92915050565b600080fd5b600080fd5b6000601f19601f8301169050919050565b7f4e487b7100000000000000000000000000000000000000000000000000000000600052604160045260246000fd5b6118db82611892565b810181811067ffffffffffffffff821117156118fa576118f96118a3565b5b80604052505050565b600061190d611816565b905061191982826118d2565b919050565b600067ffffffffffffffff821115611939576119386118a3565b5b61194282611892565b9050602081019050919050565b82818337600083830152505050565b600061197161196c8461191e565b611903565b90508281526020810184848401111561198d5761198c61188d565b5b61199884828561194f565b509392505050565b600082601f8301126119b5576119b4611888565b5b81356119c584826020860161195e565b91505092915050565b600080600080608085870312156119e8576119e7611820565b5b60006119f687828801611873565b945050602085013567ffffffffffffffff811115611a1757611a16611825565b5b611a23878288016119a0565b935050604085013567ffffffffffffffff811115611a4457611a43611825565b5b611a50878288016119a0565b925050606085013567ffffffffffffffff811115611a7157611a70611825565b5b611a7d878288016119a0565b91505092959194509250565b6000819050919050565b611a9c81611a89565b82525050565b6000602082019050611ab76000830184611a93565b92915050565b600060208284031215611ad357611ad2611820565b5b6000611ae184828501611873565b91505092915050565b600081519050919050565b600082825260208201905092915050565b60005b83811015611b24578082015181840152602081019050611b09565b60008484015250505050565b6000611b3b82611aea565b611b458185611af5565b9350611b55818560208601611b06565b611b5e81611892565b840191505092915050565b611b728161184a565b82525050565b600060e0820190508181036000830152611b92818a611b30565b90508181036020830152611ba68189611b30565b9050611bb56040830188611a93565b8181036060830152611bc78187611b30565b9050611bd66080830186611a93565b81810360a0830152611be88185611b30565b9050611bf760c0830184611b69565b98975050505050505050565b611c0c81611a89565b8114611c1757600080fd5b50565b600081359050611c2981611c03565b92915050565b600060208284031215611c4557611c44611820565b5b6000611c5384828501611c1a565b91505092915050565b6000602082019050611c716000830184611b69565b92915050565b60008060408385031215611c8e57611c8d611820565b5b6000611c9c85828601611873565b9250506020611cad85828601611c1a565b9150509250929050565b600081519050919050565b600082825260208201905092915050565b6000819050602082019050919050565b611cec8161184a565b82525050565b6000611cfe8383611ce3565b60208301905092915050565b6000602082019050919050565b6000611d2282611cb7565b611d2c8185611cc2565b9350611d3783611cd3565b8060005b83811015611d68578151611d4f8882611cf2565b9750611d5a83611d0a565b925050600181019050611d3b565b5085935050505092915050565b60006020820190508181036000830152611d8f8184611d17565b905092915050565b600060e082019050611dac600083018a611a93565b8181036020830152611dbe8189611b30565b90508181036040830152611dd28188611b30565b90508181036060830152611de68187611b30565b9050611df56080830186611a93565b611e0260a0830185611b69565b81810360c0830152611e148184611b30565b905098975050505050505050565b60008115159050919050565b611e3781611e22565b82525050565b600061010082019050611e53600083018b611a93565b8181036020830152611e65818a611b30565b90508181036040830152611e798189611b30565b9050611e886060830188611b69565b611e956080830187611e2e565b611ea260a0830186611e2e565b611eaf60c0830185611a93565b81810360e0830152611ec18184611b30565b90509998505050505050505050565b600080600080600060a08688031215611eec57611eeb611820565b5b6000611efa88828901611873565b955050602086013567ffffffffffffffff811115611f1b57611f1a611825565b5b611f27888289016119a0565b945050604086013567ffffffffffffffff811115611f4857611f47611825565b5b611f54888289016119a0565b935050606086013567ffffffffffffffff811115611f7557611f74611825565b5b611f81888289016119a0565b925050608086013567ffffffffffffffff811115611fa257611fa1611825565b5b611fae888289016119a0565b9150509295509295909350565b7f4f6e6c79206f7267616e697a65722063616e2063726561746520766f74657200600082015250565b6000611ff1601f83611af5565b9150611ffc82611fbb565b602082019050919050565b6000602082019050818103600083015261202081611fe4565b9050919050565b7f566f74657220616c726561647920657869737473000000000000000000000000600082015250565b600061205d601483611af5565b915061206882612027565b602082019050919050565b6000602082019050818103600083015261208c81612050565b9050919050565b7f4e487b7100000000000000000000000000000000000000000000000000000000600052602260045260246000fd5b600060028204905060018216806120da57607f821691505b6020821081036120ed576120ec612093565b5b50919050565b60008190508160005260206000209050919050565b60006020601f8301049050919050565b600082821b905092915050565b6000600883026121557fffffffffffffffffffffffffffffffffffffffffffffffffffffffffffffffff82612118565b61215f8683612118565b95508019841693508086168417925050509392505050565b6000819050919050565b600061219c61219761219284611a89565b612177565b611a89565b9050919050565b6000819050919050565b6121b683612181565b6121ca6121c2826121a3565b848454612125565b825550505050565b600090565b6121df6121d2565b6121ea8184846121ad565b505050565b5b8181101561220e576122036000826121d7565b6001810190506121f0565b5050565b601f82111561225357612224816120f3565b61222d84612108565b8101602085101561223c578190505b61225061224885612108565b8301826121ef565b50505b505050565b600082821c905092915050565b600061227660001984600802612258565b1980831691505092915050565b600061228f8383612265565b9150826002028217905092915050565b6122a882611aea565b67ffffffffffffffff8111156122c1576122c06118a3565b5b6122cb82546120c2565b6122d6828285612212565b600060209050601f83116001811461230957600084156122f7578287015190505b6123018582612283565b865550612369565b601f198416612317866120f3565b60005b8281101561233f5784890151825560018201915060208501945060208101905061231a565b8683101561235c5784890151612358601f891682612265565b8355505b6001600288020188555050505b505050505050565b600060e082019050818103600083015261238b818a611b30565b9050818103602083015261239f8189611b30565b90506123ae6040830188611b69565b6123bb6060830187611e2e565b6123c86080830186611e2e565b6123d560a0830185611a93565b81810360c08301526123e78184611b30565b905098975050505050505050565b7f596f75206861766520616c726561647920766f74656400000000000000000000600082015250565b600061242b601683611af5565b9150612436826123f5565b602082019050919050565b6000602082019050818103600083015261245a8161241e565b9050919050565b7f596f752068617665206e6f20726967687420746f20766f746500000000000000600082015250565b6000612497601983611af5565b91506124a282612461565b602082019050919050565b600060208201905081810360008301526124c68161248a565b9050919050565b7f4e487b7100000000000000000000000000000000000000000000000000000000600052601160045260246000fd5b600061250782611a89565b915061251283611a89565b925082820190508082111561252a576125296124cd565b5b92915050565b7f4f6e6c79206f7267616e697a65722063616e20617574686f72697a652063616e60008201527f6469646174650000000000000000000000000000000000000000000000000000602082015250565b600061258c602683611af5565b915061259782612530565b604082019050919050565b600060208201905081810360008301526125bb8161257f565b9050919050565b600060c08201905081810360008301526125dc8189611b30565b905081810360208301526125f08188611b30565b905081810360408301526126048187611b30565b90506126136060830186611a93565b6126206080830185611b69565b81810360a08301526126328184611b30565b905097965050505050505056fea2646970667358221220e19357e36fd702613b2365e23147b0c2bf8f779dee265ee918f9639d1979f90c64736f6c63430008130033",
  "linkReferences": {},
  "deployedLinkReferences": {}
}